{
  "_format": "hh-sol-artifact-1",
  "contractName": "CrowdFund",
  "sourceName": "contracts/CrowdFund.sol",
  "abi": [
    {
      "inputs": [
        {
          "internalType": "address",
          "name": "_address",
          "type": "address"
        }
      ],
      "stateMutability": "nonpayable",
      "type": "constructor"
    },
    {
      "inputs": [],
      "name": "ErrAmountZero",
      "type": "error"
    },
    {
      "inputs": [],
      "name": "ErrCallerNotDonor",
      "type": "error"
    },
    {
      "inputs": [],
      "name": "ErrCallerNotFundRaiser",
      "type": "error"
    },
    {
      "inputs": [],
      "name": "ErrCallerNotOwner",
      "type": "error"
    },
    {
      "inputs": [],
      "name": "ErrCampaignHasEnded",
      "type": "error"
    },
    {
      "inputs": [],
      "name": "ErrCampaignHasNotEnded",
      "type": "error"
    },
    {
      "inputs": [],
      "name": "ErrClaimed",
      "type": "error"
    },
    {
      "inputs": [],
      "name": "ErrEndAtBeforeStartAt",
      "type": "error"
    },
    {
      "inputs": [],
      "name": "ErrExceedMaxRaisedDuration",
      "type": "error"
    },
    {
      "inputs": [],
      "name": "ErrGoalZero",
      "type": "error"
    },
    {
      "inputs": [],
      "name": "ErrInsufficientTokenBalance",
      "type": "error"
    },
    {
      "anonymous": false,
      "inputs": [
        {
          "indexed": true,
          "internalType": "address",
          "name": "previousOwner",
          "type": "address"
        },
        {
          "indexed": true,
          "internalType": "address",
          "name": "newOwner",
          "type": "address"
        }
      ],
      "name": "OwnershipTransferred",
      "type": "event"
    },
    {
      "inputs": [
        {
          "internalType": "uint256",
          "name": "",
          "type": "uint256"
        },
        {
          "internalType": "address",
          "name": "",
          "type": "address"
        }
      ],
      "name": "amountFundedByCampaignId",
      "outputs": [
        {
          "internalType": "uint256",
          "name": "",
          "type": "uint256"
        }
      ],
      "stateMutability": "view",
      "type": "function"
    },
    {
      "inputs": [],
      "name": "campaignId",
      "outputs": [
        {
          "internalType": "uint256",
          "name": "_value",
          "type": "uint256"
        }
      ],
      "stateMutability": "view",
      "type": "function"
    },
    {
      "inputs": [
        {
          "internalType": "uint256",
          "name": "",
          "type": "uint256"
        },
        {
          "internalType": "uint256",
          "name": "",
          "type": "uint256"
        }
      ],
      "name": "campaignUpdates",
      "outputs": [
        {
          "internalType": "string",
          "name": "description",
          "type": "string"
        },
        {
          "internalType": "uint256",
          "name": "timestamp",
          "type": "uint256"
        }
      ],
      "stateMutability": "view",
      "type": "function"
    },
    {
      "inputs": [
        {
          "internalType": "uint256",
          "name": "",
          "type": "uint256"
        }
      ],
      "name": "campaigns",
      "outputs": [
        {
          "internalType": "string",
          "name": "title",
          "type": "string"
        },
        {
          "internalType": "uint256",
          "name": "campaignId",
          "type": "uint256"
        },
        {
          "internalType": "uint256",
          "name": "createdAt",
          "type": "uint256"
        },
        {
          "internalType": "uint256",
          "name": "endAt",
          "type": "uint256"
        },
        {
          "internalType": "string",
          "name": "category",
          "type": "string"
        },
        {
          "internalType": "address",
          "name": "fundraiser",
          "type": "address"
        },
        {
          "internalType": "uint256",
          "name": "goal",
          "type": "uint256"
        },
        {
          "internalType": "uint256",
          "name": "amountRaised",
          "type": "uint256"
        },
        {
          "internalType": "bool",
          "name": "claimed",
          "type": "bool"
        },
        {
          "internalType": "string",
          "name": "description",
          "type": "string"
        },
        {
          "internalType": "string",
          "name": "location",
          "type": "string"
        },
        {
          "internalType": "string",
          "name": "campaignImageUrl",
          "type": "string"
        }
      ],
      "stateMutability": "view",
      "type": "function"
    },
    {
      "inputs": [
        {
          "internalType": "uint256",
          "name": "_campaignId",
          "type": "uint256"
        }
      ],
      "name": "claim",
      "outputs": [],
      "stateMutability": "nonpayable",
      "type": "function"
    },
    {
      "inputs": [
        {
          "internalType": "string",
          "name": "_category",
          "type": "string"
        },
        {
          "internalType": "uint256",
          "name": "_goal",
          "type": "uint256"
        },
        {
          "internalType": "string",
          "name": "_description",
          "type": "string"
        },
        {
          "internalType": "string",
          "name": "_title",
          "type": "string"
        },
        {
          "internalType": "uint256",
          "name": "_endAt",
          "type": "uint256"
        },
        {
          "internalType": "string",
          "name": "_location",
          "type": "string"
        },
        {
          "internalType": "string",
          "name": "_campaignImageUrl",
          "type": "string"
        }
      ],
      "name": "createCampaign",
      "outputs": [],
      "stateMutability": "nonpayable",
      "type": "function"
    },
    {
      "inputs": [
        {
          "internalType": "uint256",
          "name": "_campaignId",
          "type": "uint256"
        },
        {
          "internalType": "string",
          "name": "_description",
          "type": "string"
        }
      ],
      "name": "createCampaignUpdate",
      "outputs": [],
      "stateMutability": "nonpayable",
      "type": "function"
    },
    {
      "inputs": [
        {
          "internalType": "uint256",
          "name": "_campaignId",
          "type": "uint256"
        },
        {
          "internalType": "string",
          "name": "_supportWord",
          "type": "string"
        }
      ],
      "name": "createWordOfSupport",
      "outputs": [],
      "stateMutability": "nonpayable",
      "type": "function"
    },
    {
      "inputs": [
        {
          "internalType": "uint256",
          "name": "",
          "type": "uint256"
        },
        {
          "internalType": "uint256",
          "name": "",
          "type": "uint256"
        }
      ],
      "name": "donorsByCampaignId",
      "outputs": [
        {
          "internalType": "uint256",
          "name": "amount",
          "type": "uint256"
        },
        {
          "internalType": "uint256",
          "name": "timestamp",
          "type": "uint256"
        },
        {
          "internalType": "address",
          "name": "donorAddress",
          "type": "address"
        }
      ],
      "stateMutability": "view",
      "type": "function"
    },
    {
      "inputs": [
        {
          "internalType": "uint256",
          "name": "_campaignId",
          "type": "uint256"
        },
        {
          "internalType": "uint256",
          "name": "_amount",
          "type": "uint256"
        },
        {
          "internalType": "uint256",
          "name": "tip",
          "type": "uint256"
        }
      ],
      "name": "fundCampaign",
      "outputs": [],
      "stateMutability": "nonpayable",
      "type": "function"
    },
    {
      "inputs": [
        {
          "internalType": "uint256",
          "name": "_campaignId",
          "type": "uint256"
        }
      ],
      "name": "getCampaignUpdate",
      "outputs": [
        {
          "components": [
            {
              "internalType": "string",
              "name": "description",
              "type": "string"
            },
            {
              "internalType": "uint256",
              "name": "timestamp",
              "type": "uint256"
            }
          ],
          "internalType": "struct DataTypes.CampaignUpdate[]",
          "name": "",
          "type": "tuple[]"
        }
      ],
      "stateMutability": "view",
      "type": "function"
    },
    {
      "inputs": [],
      "name": "getCampaigns",
      "outputs": [
        {
          "components": [
            {
              "internalType": "string",
              "name": "title",
              "type": "string"
            },
            {
              "internalType": "uint256",
              "name": "campaignId",
              "type": "uint256"
            },
            {
              "internalType": "uint256",
              "name": "createdAt",
              "type": "uint256"
            },
            {
              "internalType": "uint256",
              "name": "endAt",
              "type": "uint256"
            },
            {
              "internalType": "string",
              "name": "category",
              "type": "string"
            },
            {
              "internalType": "address",
              "name": "fundraiser",
              "type": "address"
            },
            {
              "internalType": "uint256",
              "name": "goal",
              "type": "uint256"
            },
            {
              "internalType": "uint256",
              "name": "amountRaised",
              "type": "uint256"
            },
            {
              "internalType": "bool",
              "name": "claimed",
              "type": "bool"
            },
            {
              "internalType": "string",
              "name": "description",
              "type": "string"
            },
            {
              "internalType": "string",
              "name": "location",
              "type": "string"
            },
            {
              "internalType": "string",
              "name": "campaignImageUrl",
              "type": "string"
            }
          ],
          "internalType": "struct DataTypes.Campaign[]",
          "name": "",
          "type": "tuple[]"
        }
      ],
      "stateMutability": "view",
      "type": "function"
    },
    {
      "inputs": [
        {
          "internalType": "uint256",
          "name": "_campaignId",
          "type": "uint256"
        }
      ],
      "name": "getDonors",
      "outputs": [
        {
          "components": [
            {
              "internalType": "uint256",
              "name": "amount",
              "type": "uint256"
            },
            {
              "internalType": "uint256",
              "name": "timestamp",
              "type": "uint256"
            },
            {
              "internalType": "address",
              "name": "donorAddress",
              "type": "address"
            }
          ],
          "internalType": "struct DataTypes.Donor[]",
          "name": "",
          "type": "tuple[]"
        }
      ],
      "stateMutability": "view",
      "type": "function"
    },
    {
      "inputs": [
        {
          "internalType": "uint256",
          "name": "_campaignId",
          "type": "uint256"
        }
      ],
      "name": "getWordsOfSupport",
      "outputs": [
        {
          "components": [
            {
              "internalType": "string",
              "name": "supportWord",
              "type": "string"
            },
            {
              "internalType": "uint256",
              "name": "timestamp",
              "type": "uint256"
            },
            {
              "internalType": "address",
              "name": "donor",
              "type": "address"
            }
          ],
          "internalType": "struct DataTypes.WordsOfSupport[]",
          "name": "",
          "type": "tuple[]"
        }
      ],
      "stateMutability": "view",
      "type": "function"
    },
    {
      "inputs": [],
      "name": "owner",
      "outputs": [
        {
          "internalType": "address",
          "name": "",
          "type": "address"
        }
      ],
      "stateMutability": "view",
      "type": "function"
    },
    {
      "inputs": [],
      "name": "renounceOwnership",
      "outputs": [],
      "stateMutability": "nonpayable",
      "type": "function"
    },
    {
      "inputs": [],
      "name": "token",
      "outputs": [
        {
          "internalType": "contract IERC20",
          "name": "",
          "type": "address"
        }
      ],
      "stateMutability": "view",
      "type": "function"
    },
    {
      "inputs": [],
      "name": "totalTip",
      "outputs": [
        {
          "internalType": "uint256",
          "name": "",
          "type": "uint256"
        }
      ],
      "stateMutability": "view",
      "type": "function"
    },
    {
      "inputs": [
        {
          "internalType": "address",
          "name": "newOwner",
          "type": "address"
        }
      ],
      "name": "transferOwnership",
      "outputs": [],
      "stateMutability": "nonpayable",
      "type": "function"
    },
    {
      "inputs": [],
      "name": "withdrawTips",
      "outputs": [],
      "stateMutability": "nonpayable",
      "type": "function"
    },
    {
      "inputs": [
        {
          "internalType": "uint256",
          "name": "",
          "type": "uint256"
        },
        {
          "internalType": "uint256",
          "name": "",
          "type": "uint256"
        }
      ],
      "name": "wordsOfSupport",
      "outputs": [
        {
          "internalType": "string",
          "name": "supportWord",
          "type": "string"
        },
        {
          "internalType": "uint256",
          "name": "timestamp",
          "type": "uint256"
        },
        {
          "internalType": "address",
          "name": "donor",
          "type": "address"
        }
      ],
      "stateMutability": "view",
      "type": "function"
    }
  ],
  "bytecode": "0x60a06040523480156200001157600080fd5b5060405162002ec838038062002ec88339810160408190526200003491620000a1565b6200003f3362000051565b6001600160a01b0316608052620000d3565b600080546001600160a01b038381166001600160a01b0319831681178455604051919092169283917f8be0079c531659141344cd1fd0a4f28419497f9722a3daafe3b4186f6b6457e09190a35050565b600060208284031215620000b457600080fd5b81516001600160a01b0381168114620000cc57600080fd5b9392505050565b608051612dbd6200010b6000396000818161035901528181610d8901528181610efc0152818161193b0152611ab50152612dbd6000f3fe608060405234801561001057600080fd5b50600436106101375760003560e01c806354de7386116100b85780638ed5b0fc1161007c5780638ed5b0fc146102fc578063a6b0363314610306578063ea009d5a1461031b578063f2fde38b1461032e578063fb11400d14610341578063fc0c546a1461035457600080fd5b806354de738614610284578063561cb04a146102a457806356f88f4c146102ad578063715018a6146102cf5780638da5cb5b146102d757600080fd5b806329516511116100ff5780632951651114610215578063379607f51461023557806337dcb25d146102485780633aaa74b2146102695780634573b5441461027157600080fd5b80631131b3da1461013c578063141961bc1461015157806318312224146101855780631d654359146101a5578063262dbfd0146101dc575b600080fd5b61014f61014a3660046124e7565b61037b565b005b61016461015f366004612533565b6107ff565b60405161017c9c9b9a9998979695949392919061259c565b60405180910390f35b610198610193366004612533565b610b11565b60405161017c919061264d565b6101b86101b33660046126c3565b610c16565b6040805193845260208401929092526001600160a01b03169082015260600161017c565b6102076101ea366004612701565b600660209081526000928352604080842090915290825290205481565b60405190815260200161017c565b610228610223366004612533565b610c61565b60405161017c919061272d565b61014f610243366004612533565b610ce1565b61025b6102563660046126c3565b610de0565b60405161017c92919061278f565b61014f610ea9565b61014f61027f366004612854565b610f61565b610297610292366004612533565b61125e565b60405161017c9190612955565b61020760025481565b6102c06102bb3660046126c3565b611385565b60405161017c939291906129d1565b61014f61145e565b6000546001600160a01b03165b6040516001600160a01b03909116815260200161017c565b6001546102079081565b61030e611472565b60405161017c9190612a04565b61014f610329366004612b2f565b6118cf565b61014f61033c366004612b5b565b611b20565b61014f61034f3660046124e7565b611b9e565b6102e47f000000000000000000000000000000000000000000000000000000000000000081565b600083815260036020526040808220815161018081019092528054829082906103a390612b7d565b80601f01602080910402602001604051908101604052809291908181526020018280546103cf90612b7d565b801561041c5780601f106103f15761010080835404028352916020019161041c565b820191906000526020600020905b8154815290600101906020018083116103ff57829003601f168201915b5050505050815260200160018201548152602001600282015481526020016003820154815260200160048201805461045390612b7d565b80601f016020809104026020016040519081016040528092919081815260200182805461047f90612b7d565b80156104cc5780601f106104a1576101008083540402835291602001916104cc565b820191906000526020600020905b8154815290600101906020018083116104af57829003601f168201915b505050918352505060058201546001600160a01b031660208201526006820154604082015260078201546060820152600882015460ff161515608082015260098201805460a09092019161051f90612b7d565b80601f016020809104026020016040519081016040528092919081815260200182805461054b90612b7d565b80156105985780601f1061056d57610100808354040283529160200191610598565b820191906000526020600020905b81548152906001019060200180831161057b57829003601f168201915b50505050508152602001600a820180546105b190612b7d565b80601f01602080910402602001604051908101604052809291908181526020018280546105dd90612b7d565b801561062a5780601f106105ff5761010080835404028352916020019161062a565b820191906000526020600020905b81548152906001019060200180831161060d57829003601f168201915b50505050508152602001600b8201805461064390612b7d565b80601f016020809104026020016040519081016040528092919081815260200182805461066f90612b7d565b80156106bc5780601f10610691576101008083540402835291602001916106bc565b820191906000526020600020905b81548152906001019060200180831161069f57829003601f168201915b5050505050815250509050428160600151116106eb57604051634e44f5c960e01b815260040160405180910390fd5b6106f58433611ffc565b61071257604051631dd56b6560e21b815260040160405180910390fd5b60046000858152602001908152602001600020604051806060016040528085858080601f01602080910402602001604051908101604052809392919081815260200183838082843760009201829052509385525050426020808501919091523360409094019390935250835460018101855593815220815191926003020190819061079d9082612c05565b5060208201516001820155604091820151600290910180546001600160a01b0319166001600160a01b039092169190911790555184907fbaf151cf9922173c928bfe27357d3a883151b31a16c2d421a217824be625123990600090a250505050565b60036020526000908152604090208054819061081a90612b7d565b80601f016020809104026020016040519081016040528092919081815260200182805461084690612b7d565b80156108935780601f1061086857610100808354040283529160200191610893565b820191906000526020600020905b81548152906001019060200180831161087657829003601f168201915b5050505050908060010154908060020154908060030154908060040180546108ba90612b7d565b80601f01602080910402602001604051908101604052809291908181526020018280546108e690612b7d565b80156109335780601f1061090857610100808354040283529160200191610933565b820191906000526020600020905b81548152906001019060200180831161091657829003601f168201915b505050600584015460068501546007860154600887015460098801805497986001600160a01b039095169793965091945060ff16929161097290612b7d565b80601f016020809104026020016040519081016040528092919081815260200182805461099e90612b7d565b80156109eb5780601f106109c0576101008083540402835291602001916109eb565b820191906000526020600020905b8154815290600101906020018083116109ce57829003601f168201915b50505050509080600a018054610a0090612b7d565b80601f0160208091040260200160405190810160405280929190818152602001828054610a2c90612b7d565b8015610a795780601f10610a4e57610100808354040283529160200191610a79565b820191906000526020600020905b815481529060010190602001808311610a5c57829003601f168201915b50505050509080600b018054610a8e90612b7d565b80601f0160208091040260200160405190810160405280929190818152602001828054610aba90612b7d565b8015610b075780601f10610adc57610100808354040283529160200191610b07565b820191906000526020600020905b815481529060010190602001808311610aea57829003601f168201915b505050505090508c565b6000818152600560209081526040808320805482518185028101850190935280835260609493849084015b82821015610c0a5783829060005260206000209060020201604051806040016040529081600082018054610b6f90612b7d565b80601f0160208091040260200160405190810160405280929190818152602001828054610b9b90612b7d565b8015610be85780601f10610bbd57610100808354040283529160200191610be8565b820191906000526020600020905b815481529060010190602001808311610bcb57829003601f168201915b5050505050815260200160018201548152505081526020019060010190610b3c565b50929695505050505050565b60076020528160005260406000208181548110610c3257600080fd5b60009182526020909120600390910201805460018201546002909201549093509091506001600160a01b031683565b6000818152600760209081526040808320805482518185028101850190935280835260609493849084015b82821015610c0a576000848152602090819020604080516060810182526003860290920180548352600180820154848601526002909101546001600160a01b0316918301919091529083529092019101610c8c565b600081815260036020526040902060058101546001600160a01b03163314610d1c5760405163a378562d60e01b815260040160405180910390fd5b8060030154421015610d4157604051633be80e4960e21b815260040160405180910390fd5b600881015460ff1615610d675760405163133b1da160e31b815260040160405180910390fd5b60088101805460ff191660011790556007810154610db1906001600160a01b037f0000000000000000000000000000000000000000000000000000000000000000169033906120ec565b60405182907f7bb2b3c10797baccb6f8c4791f1edd6ca2f0d028ee0eda64b01a9a57e3a653f790600090a25050565b60056020528160005260406000208181548110610dfc57600080fd5b906000526020600020906002020160009150915050806000018054610e2090612b7d565b80601f0160208091040260200160405190810160405280929190818152602001828054610e4c90612b7d565b8015610e995780601f10610e6e57610100808354040283529160200191610e99565b820191906000526020600020905b815481529060010190602001808311610e7c57829003601f168201915b5050505050908060010154905082565b610eb1612154565b33610ec46000546001600160a01b031690565b6001600160a01b031614610eeb57604051631fe0cd4d60e01b815260040160405180910390fd5b600254610f24906001600160a01b037f0000000000000000000000000000000000000000000000000000000000000000169033906120ec565b7fd576c9bd3f2af7ab572fa3e05ddf577e527a6f35d4a50a1eb9ac2ae0effebe85600254604051610f5791815260200190565b60405180910390a1565b60008911610f82576040516365be81f760e01b815260040160405180910390fd5b42851015610fa3576040516309ab590160e41b815260040160405180910390fd5b610fb062278d0042612cdb565b8510610fce5760405162bfd68960e11b815260040160405180910390fd5b6000610fd960015490565b90506040518061018001604052808881526020018281526020014281526020018781526020018d8d8080601f016020809104026020016040519081016040528093929190818152602001838380828437600081840152601f19601f820116905080830192505050505050508152602001336001600160a01b031681526020018b8152602001600081526020016000151581526020018a8a8080601f016020809104026020016040519081016040528093929190818152602001838380828437600092019190915250505090825250604080516020601f890181900481028201810190925287815291810191908890889081908401838280828437600092019190915250505090825250604080516020601f8701819004810282018101909252858152918101919086908690819084018382808284376000920182905250939094525050838152600360205260409020825190915081906111399082612c05565b506020820151600182015560408201516002820155606082015160038201556080820151600482019061116c9082612c05565b5060a08201516005820180546001600160a01b0319166001600160a01b0390921691909117905560c0820151600682015560e0820151600782015561010082015160088201805460ff191691151591909117905561012082015160098201906111d59082612c05565b50610140820151600a8201906111eb9082612c05565b50610160820151600b8201906112019082612c05565b5050600180548101905550604080518b8152426020820152908101879052339082907fd2f3f78d6aef16c18a9da87bd3f55f13b902c2a7035689b0ce960ebc543645f49060600160405180910390a3505050505050505050505050565b606060046000838152602001908152602001600020805480602002602001604051908101604052809291908181526020016000905b8282101561137a57838290600052602060002090600302016040518060600160405290816000820180546112c690612b7d565b80601f01602080910402602001604051908101604052809291908181526020018280546112f290612b7d565b801561133f5780601f106113145761010080835404028352916020019161133f565b820191906000526020600020905b81548152906001019060200180831161132257829003601f168201915b50505091835250506001828101546020808401919091526002909301546001600160a01b031660409092019190915291835292019101611293565b505050509050919050565b600460205281600052604060002081815481106113a157600080fd5b9060005260206000209060030201600091509150508060000180546113c590612b7d565b80601f01602080910402602001604051908101604052809291908181526020018280546113f190612b7d565b801561143e5780601f106114135761010080835404028352916020019161143e565b820191906000526020600020905b81548152906001019060200180831161142157829003601f168201915b5050505060018301546002909301549192916001600160a01b0316905083565b611466612154565b61147060006121ae565b565b6060600061147f60015490565b905060008167ffffffffffffffff81111561149c5761149c6127b1565b60405190808252806020026020018201604052801561153c57816020015b611529604051806101800160405280606081526020016000815260200160008152602001600081526020016060815260200160006001600160a01b0316815260200160008152602001600081526020016000151581526020016060815260200160608152602001606081525090565b8152602001906001900390816114ba5790505b50905060005b828110156118c8576000818152600360205260408082208151610180810190925280548290829061157290612b7d565b80601f016020809104026020016040519081016040528092919081815260200182805461159e90612b7d565b80156115eb5780601f106115c0576101008083540402835291602001916115eb565b820191906000526020600020905b8154815290600101906020018083116115ce57829003601f168201915b5050505050815260200160018201548152602001600282015481526020016003820154815260200160048201805461162290612b7d565b80601f016020809104026020016040519081016040528092919081815260200182805461164e90612b7d565b801561169b5780601f106116705761010080835404028352916020019161169b565b820191906000526020600020905b81548152906001019060200180831161167e57829003601f168201915b505050918352505060058201546001600160a01b031660208201526006820154604082015260078201546060820152600882015460ff161515608082015260098201805460a0909201916116ee90612b7d565b80601f016020809104026020016040519081016040528092919081815260200182805461171a90612b7d565b80156117675780601f1061173c57610100808354040283529160200191611767565b820191906000526020600020905b81548152906001019060200180831161174a57829003601f168201915b50505050508152602001600a8201805461178090612b7d565b80601f01602080910402602001604051908101604052809291908181526020018280546117ac90612b7d565b80156117f95780601f106117ce576101008083540402835291602001916117f9565b820191906000526020600020905b8154815290600101906020018083116117dc57829003601f168201915b50505050508152602001600b8201805461181290612b7d565b80601f016020809104026020016040519081016040528092919081815260200182805461183e90612b7d565b801561188b5780601f106118605761010080835404028352916020019161188b565b820191906000526020600020905b81548152906001019060200180831161186e57829003601f168201915b5050505050815250509050808383815181106118a9576118a9612cee565b60200260200101819052505080806118c090612d04565b915050611542565b5092915050565b600083815260036020819052604090912090810154421061190357604051634e44f5c960e01b815260040160405180910390fd5b600083116119245760405163f2f17a2b60e01b815260040160405180910390fd5b6040516370a0823160e01b815233600482015283907f00000000000000000000000000000000000000000000000000000000000000006001600160a01b0316906370a0823190602401602060405180830381865afa15801561198a573d6000803e3d6000fd5b505050506040513d601f19601f820116820180604052508101906119ae9190612d1d565b116119cc57604051631b4e8f5d60e31b815260040160405180910390fd5b828160070160008282546119e09190612cdb565b9091555050600084815260066020908152604080832033845290915281208054859290611a0e908490612cdb565b925050819055508160026000828254611a279190612cdb565b9091555050600084815260076020908152604080832081516060810183528781524281850190815233938201848152835460018082018655948852959096209151600390950290910193845551908301559151600290910180546001600160a01b0319166001600160a01b03909216919091179055611add9030611aab8587612cdb565b6001600160a01b037f0000000000000000000000000000000000000000000000000000000000000000169291906121fe565b6040805184815260208101849052339186917fbbc0e5ef5e92e3b95c46a69a2f828689cb6388e163c3265891445f95c6825f45910160405180910390a350505050565b611b28612154565b6001600160a01b038116611b925760405162461bcd60e51b815260206004820152602660248201527f4f776e61626c653a206e6577206f776e657220697320746865207a65726f206160448201526564647265737360d01b60648201526084015b60405180910390fd5b611b9b816121ae565b50565b60008381526003602052604080822081516101808101909252805482908290611bc690612b7d565b80601f0160208091040260200160405190810160405280929190818152602001828054611bf290612b7d565b8015611c3f5780601f10611c1457610100808354040283529160200191611c3f565b820191906000526020600020905b815481529060010190602001808311611c2257829003601f168201915b50505050508152602001600182015481526020016002820154815260200160038201548152602001600482018054611c7690612b7d565b80601f0160208091040260200160405190810160405280929190818152602001828054611ca290612b7d565b8015611cef5780601f10611cc457610100808354040283529160200191611cef565b820191906000526020600020905b815481529060010190602001808311611cd257829003601f168201915b505050918352505060058201546001600160a01b031660208201526006820154604082015260078201546060820152600882015460ff161515608082015260098201805460a090920191611d4290612b7d565b80601f0160208091040260200160405190810160405280929190818152602001828054611d6e90612b7d565b8015611dbb5780601f10611d9057610100808354040283529160200191611dbb565b820191906000526020600020905b815481529060010190602001808311611d9e57829003601f168201915b50505050508152602001600a82018054611dd490612b7d565b80601f0160208091040260200160405190810160405280929190818152602001828054611e0090612b7d565b8015611e4d5780601f10611e2257610100808354040283529160200191611e4d565b820191906000526020600020905b815481529060010190602001808311611e3057829003601f168201915b50505050508152602001600b82018054611e6690612b7d565b80601f0160208091040260200160405190810160405280929190818152602001828054611e9290612b7d565b8015611edf5780601f10611eb457610100808354040283529160200191611edf565b820191906000526020600020905b815481529060010190602001808311611ec257829003601f168201915b50505050508152505090508060a001516001600160a01b0316336001600160a01b031614611f205760405163a378562d60e01b815260040160405180910390fd5b42816060015111611f4457604051634e44f5c960e01b815260040160405180910390fd5b60008481526005602090815260409182902082516060601f8701849004909302810183018452928301858152909283929091829188908890819085018382808284376000920182905250938552505042602093840152508354600181018555938152208151919260020201908190611fbc9082612c05565b506020919091015160019091015560405185907f48a96c7abb7060bbfc035b451825837e62234a708bbf575bf0a0fb2a5e8ed1df90600090a25050505050565b600082815260076020908152604080832080548251818502810185019093528083528493849084015b8282101561207a576000848152602090819020604080516060810182526003860290920180548352600180820154848601526002909101546001600160a01b0316918301919091529083529092019101612025565b50505050905060005b81518110156120df57836001600160a01b03168282815181106120a8576120a8612cee565b6020026020010151604001516001600160a01b0316036120cd576001925050506120e6565b806120d781612d04565b915050612083565b5060009150505b92915050565b6040516001600160a01b03831660248201526044810182905261214f90849063a9059cbb60e01b906064015b60408051601f198184030181529190526020810180516001600160e01b03166001600160e01b03199093169290921790915261223c565b505050565b6000546001600160a01b031633146114705760405162461bcd60e51b815260206004820181905260248201527f4f776e61626c653a2063616c6c6572206973206e6f7420746865206f776e65726044820152606401611b89565b600080546001600160a01b038381166001600160a01b0319831681178455604051919092169283917f8be0079c531659141344cd1fd0a4f28419497f9722a3daafe3b4186f6b6457e09190a35050565b6040516001600160a01b03808516602483015283166044820152606481018290526122369085906323b872dd60e01b90608401612118565b50505050565b6000612291826040518060400160405280602081526020017f5361666545524332303a206c6f772d6c6576656c2063616c6c206661696c6564815250856001600160a01b031661230e9092919063ffffffff16565b80519091501561214f57808060200190518101906122af9190612d36565b61214f5760405162461bcd60e51b815260206004820152602a60248201527f5361666545524332303a204552433230206f7065726174696f6e20646964206e6044820152691bdd081cdd58d8d9595960b21b6064820152608401611b89565b606061231d8484600085612325565b949350505050565b6060824710156123865760405162461bcd60e51b815260206004820152602660248201527f416464726573733a20696e73756666696369656e742062616c616e636520666f6044820152651c8818d85b1b60d21b6064820152608401611b89565b600080866001600160a01b031685876040516123a29190612d58565b60006040518083038185875af1925050503d80600081146123df576040519150601f19603f3d011682016040523d82523d6000602084013e6123e4565b606091505b50915091506123f587838387612400565b979650505050505050565b6060831561246f578251600003612468576001600160a01b0385163b6124685760405162461bcd60e51b815260206004820152601d60248201527f416464726573733a2063616c6c20746f206e6f6e2d636f6e74726163740000006044820152606401611b89565b508161231d565b61231d83838151156124845781518083602001fd5b8060405162461bcd60e51b8152600401611b899190612d74565b60008083601f8401126124b057600080fd5b50813567ffffffffffffffff8111156124c857600080fd5b6020830191508360208285010111156124e057600080fd5b9250929050565b6000806000604084860312156124fc57600080fd5b83359250602084013567ffffffffffffffff81111561251a57600080fd5b6125268682870161249e565b9497909650939450505050565b60006020828403121561254557600080fd5b5035919050565b60005b8381101561256757818101518382015260200161254f565b50506000910152565b6000815180845261258881602086016020860161254c565b601f01601f19169290920160200192915050565b610180815260006125b161018083018f612570565b8d60208401528c60408401528b606084015282810360808401526125d5818c612570565b6001600160a01b038b1660a085015260c084018a905260e0840189905287151561010085015290508281036101208401526126108187612570565b90508281036101408401526126258186612570565b905082810361016084015261263a8185612570565b9f9e505050505050505050505050505050565b60006020808301818452808551808352604092508286019150828160051b87010184880160005b838110156126b557888303603f190185528151805187855261269888860182612570565b918901519489019490945294870194925090860190600101612674565b509098975050505050505050565b600080604083850312156126d657600080fd5b50508035926020909101359150565b80356001600160a01b03811681146126fc57600080fd5b919050565b6000806040838503121561271457600080fd5b82359150612724602084016126e5565b90509250929050565b602080825282518282018190526000919060409081850190868401855b828110156127825781518051855286810151878601528501516001600160a01b0316858501526060909301929085019060010161274a565b5091979650505050505050565b6040815260006127a26040830185612570565b90508260208301529392505050565b634e487b7160e01b600052604160045260246000fd5b600082601f8301126127d857600080fd5b813567ffffffffffffffff808211156127f3576127f36127b1565b604051601f8301601f19908116603f0116810190828211818310171561281b5761281b6127b1565b8160405283815286602085880101111561283457600080fd5b836020870160208301376000602085830101528094505050505092915050565b600080600080600080600080600080600060e08c8e03121561287557600080fd5b67ffffffffffffffff808d35111561288c57600080fd5b6128998e8e358f0161249e565b909c509a5060208d0135995060408d01358110156128b657600080fd5b6128c68e60408f01358f0161249e565b909950975060608d01358110156128dc57600080fd5b6128ec8e60608f01358f016127c7565b965060808d013595508060a08e0135111561290657600080fd5b6129168e60a08f01358f0161249e565b909550935060c08d013581101561292c57600080fd5b5061293d8d60c08e01358e0161249e565b81935080925050509295989b509295989b9093969950565b60006020808301818452808551808352604092508286019150828160051b87010184880160005b838110156126b557603f198984030185528151606081518186526129a282870182612570565b838b0151878c0152928901516001600160a01b031695890195909552509487019492509086019060010161297c565b6060815260006129e46060830186612570565b6020830194909452506001600160a01b0391909116604090910152919050565b60006020808301818452808551808352604092508286019150828160051b87010184880160005b838110156126b557603f1989840301855281516101808151818652612a5282870182612570565b91505088820151898601528782015188860152606080830151818701525060808083015186830382880152612a878382612570565b9250505060a080830151612aa5828801826001600160a01b03169052565b505060c0828101519086015260e08083015190860152610100808301511515908601526101208083015186830382880152612ae08382612570565b925050506101408083015186830382880152612afc8382612570565b925050506101608083015192508582038187015250612b1b8183612570565b968901969450505090860190600101612a2b565b600080600060608486031215612b4457600080fd5b505081359360208301359350604090920135919050565b600060208284031215612b6d57600080fd5b612b76826126e5565b9392505050565b600181811c90821680612b9157607f821691505b602082108103612bb157634e487b7160e01b600052602260045260246000fd5b50919050565b601f82111561214f57600081815260208120601f850160051c81016020861015612bde5750805b601f850160051c820191505b81811015612bfd57828155600101612bea565b505050505050565b815167ffffffffffffffff811115612c1f57612c1f6127b1565b612c3381612c2d8454612b7d565b84612bb7565b602080601f831160018114612c685760008415612c505750858301515b600019600386901b1c1916600185901b178555612bfd565b600085815260208120601f198616915b82811015612c9757888601518255948401946001909101908401612c78565b5085821015612cb55787850151600019600388901b60f8161c191681555b5050505050600190811b01905550565b634e487b7160e01b600052601160045260246000fd5b808201808211156120e6576120e6612cc5565b634e487b7160e01b600052603260045260246000fd5b600060018201612d1657612d16612cc5565b5060010190565b600060208284031215612d2f57600080fd5b5051919050565b600060208284031215612d4857600080fd5b81518015158114612b7657600080fd5b60008251612d6a81846020870161254c565b9190910192915050565b602081526000612b76602083018461257056fea26469706673582212208ed5d31d6d81f0e3bad2698c1d4a706b41540d7bfb997510bdeb435cd3de008e64736f6c63430008120033",
  "linkReferences": {},
  "deployedLinkReferences": {}
}